{
    "contractName": "StoreHash",
    "abi": [
        {
            "inputs": [
                {
                    "internalType": "uint256",
                    "name": "id",
                    "type": "uint256"
                },
                {
                    "internalType": "string",
                    "name": "ipfsHash",
                    "type": "string"
                }
            ],
            "name": "sendHash",
            "outputs": [],
            "stateMutability": "nonpayable",
            "type": "function"
        },
        {
            "inputs": [
                {
                    "internalType": "uint256",
                    "name": "id",
                    "type": "uint256"
                },
                {
                    "internalType": "string",
                    "name": "hashToVerify",
                    "type": "string"
                }
            ],
            "name": "verifyDocument",
            "outputs": [
                {
                    "internalType": "bool",
                    "name": "",
                    "type": "bool"
                }
            ],
            "stateMutability": "view",
            "type": "function"
        }
    ],
    "bytecode": "608060405234801561001057600080fd5b506103fa806100206000396000f3fe608060405234801561001057600080fd5b50600436106100365760003560e01c8063bd7949751461003b578063d40a2c5d14610050575b600080fd5b61004e61004936600461011c565b610077565b005b61006361005e36600461011c565b610094565b604051901515815260200160405180910390f35b600082815260016020526040902061008f828261025f565b505050565b6000816040516020016100a7919061031f565b60408051601f1981840301815282825280516020918201206000878152600183529290922091926100d992910161034e565b60405160208183030381529060405280519060200120036100fc57506001610100565b5060005b92915050565b634e487b7160e01b600052604160045260246000fd5b6000806040838503121561012f57600080fd5b82359150602083013567ffffffffffffffff8082111561014e57600080fd5b818501915085601f83011261016257600080fd5b81358181111561017457610174610106565b604051601f8201601f19908116603f0116810190838211818310171561019c5761019c610106565b816040528281528860208487010111156101b557600080fd5b8260208601602083013760006020848301015280955050505050509250929050565b600181811c908216806101eb57607f821691505b60208210810361020b57634e487b7160e01b600052602260045260246000fd5b50919050565b601f82111561008f57600081815260208120601f850160051c810160208610156102385750805b601f850160051c820191505b8181101561025757828155600101610244565b505050505050565b815167ffffffffffffffff81111561027957610279610106565b61028d8161028784546101d7565b84610211565b602080601f8311600181146102c257600084156102aa5750858301515b600019600386901b1c1916600185901b178555610257565b600085815260208120601f198616915b828110156102f1578886015182559484019460019091019084016102d2565b508582101561030f5787850151600019600388901b60f8161c191681555b5050505050600190811b01905550565b6000825160005b818110156103405760208186018101518583015201610326565b506000920191825250919050565b600080835461035c816101d7565b600182811680156103745760018114610389576103b8565b60ff19841687528215158302870194506103b8565b8760005260208060002060005b858110156103af5781548a820152908401908201610396565b50505082870194505b5092969550505050505056fea2646970667358221220133db8587387ca798d85a835da65bfc1022fcfc521ac7e3d0aafdf25ce2fdd2364736f6c63430008110033",
    "sourcePath": "d:/dapp1 - Copy/truffle/contracts/StoreHash.sol",
    "compiler": {
        "name": "solc",
        "version": "0.8.17+commit.8df45f5f"
    },
    "functionHashes": {
        "sendHash(uint256,string)": "bd794975",
        "verifyDocument(uint256,string)": "d40a2c5d"
    },
    "gasEstimates": {
        "creation": {
            "codeDepositCost": "203600",
            "executionCost": "245",
            "totalCost": "203845"
        },
        "external": {
            "sendHash(uint256,string)": "infinite",
            "verifyDocument(uint256,string)": "infinite"
        }
    }
}